{
  "_format": "hh-sol-artifact-1",
  "contractName": "LiquidateLoan",
  "sourceName": "contracts/LiquidateLoan.sol",
  "abi": [
    {
      "inputs": [
        {
          "internalType": "contract ILendingPoolAddressesProvider",
          "name": "_addressProvider",
          "type": "address"
        },
        {
          "internalType": "contract IUniswapV2Router02",
          "name": "_uniswapV2Router",
          "type": "address"
        }
      ],
      "stateMutability": "nonpayable",
      "type": "constructor"
    },
    {
      "anonymous": false,
      "inputs": [
        {
          "indexed": false,
          "internalType": "string",
          "name": "stringFailure",
          "type": "string"
        }
      ],
      "name": "ErrorHandled",
      "type": "event"
    },
    {
      "anonymous": false,
      "inputs": [
        {
          "indexed": true,
          "internalType": "address",
          "name": "previousOwner",
          "type": "address"
        },
        {
          "indexed": true,
          "internalType": "address",
          "name": "newOwner",
          "type": "address"
        }
      ],
      "name": "OwnershipTransferred",
      "type": "event"
    },
    {
      "inputs": [
        {
          "internalType": "address",
          "name": "_assetToLiquidate",
          "type": "address"
        },
        {
          "internalType": "uint256",
          "name": "_flashAmt",
          "type": "uint256"
        },
        {
          "internalType": "address",
          "name": "_collateral",
          "type": "address"
        },
        {
          "internalType": "address",
          "name": "_userToLiquidate",
          "type": "address"
        },
        {
          "internalType": "uint256",
          "name": "_amountOutMin",
          "type": "uint256"
        },
        {
          "internalType": "address[]",
          "name": "_swapPath",
          "type": "address[]"
        }
      ],
      "name": "executeFlashLoans",
      "outputs": [],
      "stateMutability": "nonpayable",
      "type": "function"
    },
    {
      "inputs": [
        {
          "internalType": "address[]",
          "name": "assets",
          "type": "address[]"
        },
        {
          "internalType": "uint256[]",
          "name": "amounts",
          "type": "uint256[]"
        },
        {
          "internalType": "uint256[]",
          "name": "premiums",
          "type": "uint256[]"
        },
        {
          "internalType": "address",
          "name": "initiator",
          "type": "address"
        },
        {
          "internalType": "bytes",
          "name": "params",
          "type": "bytes"
        }
      ],
      "name": "executeOperation",
      "outputs": [
        {
          "internalType": "bool",
          "name": "",
          "type": "bool"
        }
      ],
      "stateMutability": "nonpayable",
      "type": "function"
    },
    {
      "inputs": [],
      "name": "isOwner",
      "outputs": [
        {
          "internalType": "bool",
          "name": "",
          "type": "bool"
        }
      ],
      "stateMutability": "view",
      "type": "function"
    },
    {
      "inputs": [
        {
          "internalType": "address",
          "name": "_collateral",
          "type": "address"
        },
        {
          "internalType": "address",
          "name": "_liquidate_asset",
          "type": "address"
        },
        {
          "internalType": "address",
          "name": "_userToLiquidate",
          "type": "address"
        },
        {
          "internalType": "uint256",
          "name": "_amount",
          "type": "uint256"
        },
        {
          "internalType": "bool",
          "name": "_receiveaToken",
          "type": "bool"
        }
      ],
      "name": "liquidateLoan",
      "outputs": [],
      "stateMutability": "nonpayable",
      "type": "function"
    },
    {
      "inputs": [],
      "name": "owner",
      "outputs": [
        {
          "internalType": "address",
          "name": "",
          "type": "address"
        }
      ],
      "stateMutability": "view",
      "type": "function"
    },
    {
      "inputs": [],
      "name": "renounceOwnership",
      "outputs": [],
      "stateMutability": "nonpayable",
      "type": "function"
    },
    {
      "inputs": [
        {
          "internalType": "address",
          "name": "asset_from",
          "type": "address"
        },
        {
          "internalType": "uint256",
          "name": "amountOutMin",
          "type": "uint256"
        },
        {
          "internalType": "address[]",
          "name": "swapPath",
          "type": "address[]"
        }
      ],
      "name": "swapToBorrowedAsset",
      "outputs": [],
      "stateMutability": "nonpayable",
      "type": "function"
    },
    {
      "inputs": [
        {
          "internalType": "address",
          "name": "newOwner",
          "type": "address"
        }
      ],
      "name": "transferOwnership",
      "outputs": [],
      "stateMutability": "nonpayable",
      "type": "function"
    },
    {
      "stateMutability": "payable",
      "type": "receive"
    }
  ],
  "bytecode": "0x60806040523480156200001157600080fd5b506040516200168a3803806200168a8339810160408190526200003491620001e0565b600080546001600160a01b0319166001600160a01b03841690811790915560408051630261bf8b60e01b81529051849291630261bf8b9160048083019260209291908290030181865afa15801562000090573d6000803e3d6000fd5b505050506040513d601f19601f82011682018060405250810190620000b691906200021f565b600180546001600160a01b03929092166001600160a01b031992831617905560028054909116339081179091556040519091506000907f8be0079c531659141344cd1fd0a4f28419497f9722a3daafe3b4186f6b6457e0908290a3600380546001600160a01b0319166001600160a01b03841690811790915560408051630261bf8b60e01b81529051630261bf8b916004808201926020929091908290030181865afa1580156200016b573d6000803e3d6000fd5b505050506040513d601f19601f820116820180604052508101906200019191906200021f565b600580546001600160a01b039283166001600160a01b031991821617909155600480549390921692169190911790555062000246565b6001600160a01b0381168114620001dd57600080fd5b50565b60008060408385031215620001f457600080fd5b82516200020181620001c7565b60208401519092506200021481620001c7565b809150509250929050565b6000602082840312156200023257600080fd5b81516200023f81620001c7565b9392505050565b61143480620002566000396000f3fe60806040526004361061007f5760003560e01c8063920f5c841161004e578063920f5c841461011b5780639b770a641461013b578063bb8e3f631461015b578063f2fde38b1461017b57600080fd5b806339908e921461008b578063715018a6146100ad5780638da5cb5b146100c25780638f32d59b146100ef57600080fd5b3661008657005b600080fd5b34801561009757600080fd5b506100ab6100a6366004610c28565b61019b565b005b3480156100b957600080fd5b506100ab6102d7565b3480156100ce57600080fd5b506002546040516001600160a01b0390911681526020015b60405180910390f35b3480156100fb57600080fd5b506002546001600160a01b031633145b60405190151581526020016100e6565b34801561012757600080fd5b5061010b610136366004610cdc565b61034b565b34801561014757600080fd5b506100ab610156366004610ec2565b610685565b34801561016757600080fd5b506100ab610176366004610f49565b610838565b34801561018757600080fd5b506100ab610196366004610fa2565b610a24565b60015460405163095ea7b360e01b81526001600160a01b039182166004820152602481018490529085169063095ea7b3906044016020604051808303816000875af11580156101ee573d6000803e3d6000fd5b505050506040513d601f19601f820116820180604052508101906102129190610fbf565b6102545760405162461bcd60e51b815260206004820152600e60248201526d20b8383937bb30b61032b93937b960911b60448201526064015b60405180910390fd5b60015460405162a718a960e01b81526001600160a01b038781166004830152868116602483015285811660448301526064820185905283151560848301529091169062a718a99060a401600060405180830381600087803b1580156102b857600080fd5b505af11580156102cc573d6000803e3d6000fd5b505050505050505050565b6002546001600160a01b031633146103015760405162461bcd60e51b815260040161024b90610fdc565b6002546040516000916001600160a01b0316907f8be0079c531659141344cd1fd0a4f28419497f9722a3daafe3b4186f6b6457e0908390a3600280546001600160a01b0319169055565b60008080808061035d86880188611011565b93509350935093506103b3848f8f600081811061037c5761037c61107d565b90506020020160208101906103919190610fa2565b858f8f60008181106103a5576103a561107d565b90506020020135600061019b565b6103be848383610838565b600061048e8f8f60008181106103d6576103d661107d565b90506020020160208101906103eb9190610fa2565b6040516370a0823160e01b81523060048201526001600160a01b0391909116906370a0823190602401602060405180830381865afa158015610431573d6000803e3d6000fd5b505050506040513d601f19601f820116820180604052508101906104559190611093565b8e8e60008181106104685761046861107d565b905060200201358d8d60008181106104825761048261107d565b90506020020135610a5a565b9050600081116104cc5760405162461bcd60e51b8152602060048201526009602482015268139bc81c1c9bd99a5d60ba1b604482015260640161024b565b8e8e60008181106104df576104df61107d565b90506020020160208101906104f49190610fa2565b6001600160a01b031663a9059cbb6105146002546001600160a01b031690565b6040516001600160e01b031960e084901b1681526001600160a01b039091166004820152602481018490526044016020604051808303816000875af1158015610561573d6000803e3d6000fd5b505050506040513d601f19601f820116820180604052508101906105859190610fbf565b5060006105cd8c8c600081811061059e5761059e61107d565b905060200201358f8f60008181106105b8576105b861107d565b90506020020135610aa490919063ffffffff16565b90508f8f60008181106105e2576105e261107d565b90506020020160208101906105f79190610fa2565b60015460405163095ea7b360e01b81526001600160a01b0391821660048201526024810184905291169063095ea7b3906044016020604051808303816000875af1158015610649573d6000803e3d6000fd5b505050506040513d601f19601f8201168201806040525081019061066d9190610fbf565b50600196505050505050509998505050505050505050565b6002546001600160a01b031633146106af5760405162461bcd60e51b815260040161024b90610fdc565b6040805160018082528183019092523091600091906020808301908036833701905050905087816000815181106106e8576106e861107d565b6001600160a01b03929092166020928302919091019091015260408051600180825281830190925260009181602001602082028036833701905050905087816000815181106107395761073961107d565b602090810291909101015260408051600180825281830190925260009181602001602082028036833701905050905060008160008151811061077d5761077d61107d565b60200260200101818152505060003090506000898989896040516020016107a794939291906110f0565b60408051601f198184030181529082905260015463ab9c4b5d60e01b83529092506000916001600160a01b039091169063ab9c4b5d906107f7908a908a908a908a908a908a908a906004016111aa565b600060405180830381600087803b15801561081157600080fd5b505af1158015610825573d6000803e3d6000fd5b5050505050505050505050505050505050565b600080806108484261012c61123e565b6040516370a0823160e01b81523060048201528794509091506001600160a01b038416906370a0823190602401602060405180830381865afa158015610892573d6000803e3d6000fd5b505050506040513d601f19601f820116820180604052508101906108b69190611093565b6004805460405163095ea7b360e01b81526001600160a01b0391821692810192909252602482018390529193509084169063095ea7b3906044016020604051808303816000875af115801561090f573d6000803e3d6000fd5b505050506040513d601f19601f820116820180604052508101906109339190610fbf565b50600480546040516338ed173960e01b81526001600160a01b03909116916338ed17399161096b9186918a918a913091899101611256565b6000604051808303816000875af19250505080156109ab57506040513d6000823e601f3d908101601f191682016040526109a89190810190611292565b60015b610a1a576109b761132e565b806308c379a01415610a1457506109cc61134a565b806109d75750610a1c565b7f4f17d5cf0427b4fe5e5649c407d3021315cfaa7216c9e58c369ef3937c40801a81604051610a0691906113d4565b60405180910390a150610a1c565b50610a1c565b505b505050505050565b6002546001600160a01b03163314610a4e5760405162461bcd60e51b815260040161024b90610fdc565b610a5781610b0a565b50565b6000610a9c610a698484610aa4565b604080518082019091526014815273373790383937b334ba39903a37903932ba3ab93760611b6020820152869190610bcb565b949350505050565b600080610ab1838561123e565b905083811015610b035760405162461bcd60e51b815260206004820152601b60248201527f536166654d6174683a206164646974696f6e206f766572666c6f770000000000604482015260640161024b565b9392505050565b6001600160a01b038116610b6f5760405162461bcd60e51b815260206004820152602660248201527f4f776e61626c653a206e6577206f776e657220697320746865207a65726f206160448201526564647265737360d01b606482015260840161024b565b6002546040516001600160a01b038084169216907f8be0079c531659141344cd1fd0a4f28419497f9722a3daafe3b4186f6b6457e090600090a3600280546001600160a01b0319166001600160a01b0392909216919091179055565b60008184841115610bef5760405162461bcd60e51b815260040161024b91906113d4565b506000610bfc84866113e7565b95945050505050565b6001600160a01b0381168114610a5757600080fd5b8015158114610a5757600080fd5b600080600080600060a08688031215610c4057600080fd5b8535610c4b81610c05565b94506020860135610c5b81610c05565b93506040860135610c6b81610c05565b9250606086013591506080860135610c8281610c1a565b809150509295509295909350565b60008083601f840112610ca257600080fd5b50813567ffffffffffffffff811115610cba57600080fd5b6020830191508360208260051b8501011115610cd557600080fd5b9250929050565b600080600080600080600080600060a08a8c031215610cfa57600080fd5b893567ffffffffffffffff80821115610d1257600080fd5b610d1e8d838e01610c90565b909b50995060208c0135915080821115610d3757600080fd5b610d438d838e01610c90565b909950975060408c0135915080821115610d5c57600080fd5b610d688d838e01610c90565b909750955060608c01359150610d7d82610c05565b90935060808b01359080821115610d9357600080fd5b818c0191508c601f830112610da757600080fd5b813581811115610db657600080fd5b8d6020828501011115610dc857600080fd5b6020830194508093505050509295985092959850929598565b634e487b7160e01b600052604160045260246000fd5b601f8201601f1916810167ffffffffffffffff81118282101715610e1d57610e1d610de1565b6040525050565b600067ffffffffffffffff821115610e3e57610e3e610de1565b5060051b60200190565b600082601f830112610e5957600080fd5b81356020610e6682610e24565b604051610e738282610df7565b83815260059390931b8501820192828101915086841115610e9357600080fd5b8286015b84811015610eb7578035610eaa81610c05565b8352918301918301610e97565b509695505050505050565b60008060008060008060c08789031215610edb57600080fd5b8635610ee681610c05565b9550602087013594506040870135610efd81610c05565b93506060870135610f0d81610c05565b92506080870135915060a087013567ffffffffffffffff811115610f3057600080fd5b610f3c89828a01610e48565b9150509295509295509295565b600080600060608486031215610f5e57600080fd5b8335610f6981610c05565b925060208401359150604084013567ffffffffffffffff811115610f8c57600080fd5b610f9886828701610e48565b9150509250925092565b600060208284031215610fb457600080fd5b8135610b0381610c05565b600060208284031215610fd157600080fd5b8151610b0381610c1a565b6020808252818101527f4f776e61626c653a2063616c6c6572206973206e6f7420746865206f776e6572604082015260600190565b6000806000806080858703121561102757600080fd5b843561103281610c05565b9350602085013561104281610c05565b925060408501359150606085013567ffffffffffffffff81111561106557600080fd5b61107187828801610e48565b91505092959194509250565b634e487b7160e01b600052603260045260246000fd5b6000602082840312156110a557600080fd5b5051919050565b600081518084526020808501945080840160005b838110156110e55781516001600160a01b0316875295820195908201906001016110c0565b509495945050505050565b6001600160a01b0385811682528416602082015260408101839052608060608201819052600090611123908301846110ac565b9695505050505050565b600081518084526020808501945080840160005b838110156110e557815187529582019590820190600101611141565b6000815180845260005b8181101561118357602081850181015186830182015201611167565b81811115611195576000602083870101525b50601f01601f19169290920160200192915050565b600060018060a01b03808a16835260e060208401526111cc60e084018a6110ac565b83810360408501526111de818a61112d565b905083810360608501526111f2818961112d565b9050818716608085015283810360a085015261120e818761115d565b9250505061ffff831660c083015298975050505050505050565b634e487b7160e01b600052601160045260246000fd5b6000821982111561125157611251611228565b500190565b85815284602082015260a06040820152600061127560a08301866110ac565b6001600160a01b0394909416606083015250608001529392505050565b600060208083850312156112a557600080fd5b825167ffffffffffffffff8111156112bc57600080fd5b8301601f810185136112cd57600080fd5b80516112d881610e24565b6040516112e58282610df7565b82815260059290921b830184019184810191508783111561130557600080fd5b928401925b828410156113235783518252928401929084019061130a565b979650505050505050565b600060033d11156113475760046000803e5060005160e01c5b90565b600060443d10156113585790565b6040516003193d81016004833e81513d67ffffffffffffffff816024840111818411171561138857505050505090565b82850191508151818111156113a05750505050505090565b843d87010160208285010111156113ba5750505050505090565b6113c960208286010187610df7565b509095945050505050565b602081526000610b03602083018461115d565b6000828210156113f9576113f9611228565b50039056fea26469706673582212201f32e73f1c940b452d5e564c459c48310afeba15cf0320389a68b6006d2782bf64736f6c634300080a0033",
  "linkReferences": {},
  "deployedLinkReferences": {}
}