{
  "_format": "hh-sol-artifact-1",
  "contractName": "LiquidateLoan",
  "sourceName": "contracts/LiquidateLoan.sol",
  "abi": [
    {
      "inputs": [
        {
          "internalType": "contract ILendingPoolAddressesProvider",
          "name": "_addressProvider",
          "type": "address"
        },
        {
          "internalType": "contract IUniswapV2Router02",
          "name": "_uniswapV2Router",
          "type": "address"
        }
      ],
      "stateMutability": "nonpayable",
      "type": "constructor"
    },
    {
      "anonymous": false,
      "inputs": [
        {
          "indexed": false,
          "internalType": "string",
          "name": "stringFailure",
          "type": "string"
        }
      ],
      "name": "ErrorHandled",
      "type": "event"
    },
    {
      "anonymous": false,
      "inputs": [
        {
          "indexed": true,
          "internalType": "address",
          "name": "previousOwner",
          "type": "address"
        },
        {
          "indexed": true,
          "internalType": "address",
          "name": "newOwner",
          "type": "address"
        }
      ],
      "name": "OwnershipTransferred",
      "type": "event"
    },
    {
      "inputs": [
        {
          "internalType": "address",
          "name": "_assetToLiquidate",
          "type": "address"
        },
        {
          "internalType": "uint256",
          "name": "_flashAmt",
          "type": "uint256"
        },
        {
          "internalType": "address",
          "name": "_collateral",
          "type": "address"
        },
        {
          "internalType": "address",
          "name": "_userToLiquidate",
          "type": "address"
        },
        {
          "internalType": "uint256",
          "name": "_amountOutMin",
          "type": "uint256"
        },
        {
          "internalType": "address[]",
          "name": "_swapPath",
          "type": "address[]"
        }
      ],
      "name": "executeFlashLoans",
      "outputs": [],
      "stateMutability": "nonpayable",
      "type": "function"
    },
    {
      "inputs": [
        {
          "internalType": "address[]",
          "name": "assets",
          "type": "address[]"
        },
        {
          "internalType": "uint256[]",
          "name": "amounts",
          "type": "uint256[]"
        },
        {
          "internalType": "uint256[]",
          "name": "premiums",
          "type": "uint256[]"
        },
        {
          "internalType": "address",
          "name": "initiator",
          "type": "address"
        },
        {
          "internalType": "bytes",
          "name": "params",
          "type": "bytes"
        }
      ],
      "name": "executeOperation",
      "outputs": [
        {
          "internalType": "bool",
          "name": "",
          "type": "bool"
        }
      ],
      "stateMutability": "nonpayable",
      "type": "function"
    },
    {
      "inputs": [],
      "name": "isOwner",
      "outputs": [
        {
          "internalType": "bool",
          "name": "",
          "type": "bool"
        }
      ],
      "stateMutability": "view",
      "type": "function"
    },
    {
      "inputs": [
        {
          "internalType": "address",
          "name": "_collateral",
          "type": "address"
        },
        {
          "internalType": "address",
          "name": "_liquidate_asset",
          "type": "address"
        },
        {
          "internalType": "address",
          "name": "_userToLiquidate",
          "type": "address"
        },
        {
          "internalType": "uint256",
          "name": "_amount",
          "type": "uint256"
        },
        {
          "internalType": "bool",
          "name": "_receiveaToken",
          "type": "bool"
        }
      ],
      "name": "liquidateLoan",
      "outputs": [],
      "stateMutability": "nonpayable",
      "type": "function"
    },
    {
      "inputs": [],
      "name": "owner",
      "outputs": [
        {
          "internalType": "address",
          "name": "",
          "type": "address"
        }
      ],
      "stateMutability": "view",
      "type": "function"
    },
    {
      "inputs": [],
      "name": "renounceOwnership",
      "outputs": [],
      "stateMutability": "nonpayable",
      "type": "function"
    },
    {
      "inputs": [
        {
          "internalType": "address",
          "name": "asset_from",
          "type": "address"
        },
        {
          "internalType": "uint256",
          "name": "amountOutMin",
          "type": "uint256"
        },
        {
          "internalType": "address[]",
          "name": "swapPath",
          "type": "address[]"
        }
      ],
      "name": "swapToBorrowedAsset",
      "outputs": [],
      "stateMutability": "nonpayable",
      "type": "function"
    },
    {
      "inputs": [
        {
          "internalType": "address",
          "name": "newOwner",
          "type": "address"
        }
      ],
      "name": "transferOwnership",
      "outputs": [],
      "stateMutability": "nonpayable",
      "type": "function"
    },
    {
      "stateMutability": "payable",
      "type": "receive"
    }
  ],
  "bytecode": "0x60806040523480156200001157600080fd5b50604051620016083803806200160883398101604081905262000034916200015c565b600080546001600160a01b0319166001600160a01b03841690811790915560408051630261bf8b60e01b81529051849291630261bf8b9160048083019260209291908290030181865afa15801562000090573d6000803e3d6000fd5b505050506040513d601f19601f82011682018060405250810190620000b691906200019b565b600180546001600160a01b03929092166001600160a01b031992831617905560028054909116339081179091556040519091506000907f8be0079c531659141344cd1fd0a4f28419497f9722a3daafe3b4186f6b6457e0908290a3600380546001600160a01b039384166001600160a01b03199182161790915560048054929093169116179055620001c2565b6001600160a01b03811681146200015957600080fd5b50565b600080604083850312156200017057600080fd5b82516200017d8162000143565b6020840151909250620001908162000143565b809150509250929050565b600060208284031215620001ae57600080fd5b8151620001bb8162000143565b9392505050565b61143680620001d26000396000f3fe60806040526004361061007f5760003560e01c8063920f5c841161004e578063920f5c841461011b5780639b770a641461013b578063bb8e3f631461015b578063f2fde38b1461017b57600080fd5b806339908e921461008b578063715018a6146100ad5780638da5cb5b146100c25780638f32d59b146100ef57600080fd5b3661008657005b600080fd5b34801561009757600080fd5b506100ab6100a6366004610c5f565b61019b565b005b3480156100b957600080fd5b506100ab6102d8565b3480156100ce57600080fd5b506002546040516001600160a01b0390911681526020015b60405180910390f35b3480156100fb57600080fd5b506002546001600160a01b031633145b60405190151581526020016100e6565b34801561012757600080fd5b5061010b610136366004610d13565b61037c565b34801561014757600080fd5b506100ab610156366004610ef9565b6106b6565b34801561016757600080fd5b506100ab610176366004610f80565b61083f565b34801561018757600080fd5b506100ab610196366004610fd9565b610a2b565b60015460405163095ea7b360e01b81526001600160a01b039182166004820152602481018490529085169063095ea7b3906044016020604051808303816000875af11580156101ee573d6000803e3d6000fd5b505050506040513d601f19601f820116820180604052508101906102129190610ff6565b6102545760405162461bcd60e51b815260206004820152600e60248201526d20b8383937bb30b61032b93937b960911b60448201526064015b60405180910390fd5b60015460405162a718a960e01b81526001600160a01b03878116600483015286811660248301528581166044830152600019606483015283151560848301529091169062a718a99060a401600060405180830381600087803b1580156102b957600080fd5b505af11580156102cd573d6000803e3d6000fd5b505050505050505050565b6002546001600160a01b031633146103325760405162461bcd60e51b815260206004820181905260248201527f4f776e61626c653a2063616c6c6572206973206e6f7420746865206f776e6572604482015260640161024b565b6002546040516000916001600160a01b0316907f8be0079c531659141344cd1fd0a4f28419497f9722a3daafe3b4186f6b6457e0908390a3600280546001600160a01b0319169055565b60008080808061038e86880188611013565b93509350935093506103e4848f8f60008181106103ad576103ad61107f565b90506020020160208101906103c29190610fd9565b858f8f60008181106103d6576103d661107f565b90506020020135600061019b565b6103ef84838361083f565b60006104bf8f8f60008181106104075761040761107f565b905060200201602081019061041c9190610fd9565b6040516370a0823160e01b81523060048201526001600160a01b0391909116906370a0823190602401602060405180830381865afa158015610462573d6000803e3d6000fd5b505050506040513d601f19601f820116820180604052508101906104869190611095565b8e8e60008181106104995761049961107f565b905060200201358d8d60008181106104b3576104b361107f565b90506020020135610a91565b9050600081116104fd5760405162461bcd60e51b8152602060048201526009602482015268139bc81c1c9bd99a5d60ba1b604482015260640161024b565b8e8e60008181106105105761051061107f565b90506020020160208101906105259190610fd9565b6001600160a01b031663a9059cbb6105456002546001600160a01b031690565b6040516001600160e01b031960e084901b1681526001600160a01b039091166004820152602481018490526044016020604051808303816000875af1158015610592573d6000803e3d6000fd5b505050506040513d601f19601f820116820180604052508101906105b69190610ff6565b5060006105fe8c8c60008181106105cf576105cf61107f565b905060200201358f8f60008181106105e9576105e961107f565b90506020020135610adb90919063ffffffff16565b90508f8f60008181106106135761061361107f565b90506020020160208101906106289190610fd9565b60015460405163095ea7b360e01b81526001600160a01b0391821660048201526024810184905291169063095ea7b3906044016020604051808303816000875af115801561067a573d6000803e3d6000fd5b505050506040513d601f19601f8201168201806040525081019061069e9190610ff6565b50600196505050505050509998505050505050505050565b6040805160018082528183019092523091600091906020808301908036833701905050905087816000815181106106ef576106ef61107f565b6001600160a01b03929092166020928302919091019091015260408051600180825281830190925260009181602001602082028036833701905050905087816000815181106107405761074061107f565b60209081029190910101526040805160018082528183019092526000918160200160208202803683370190505090506000816000815181106107845761078461107f565b60200260200101818152505060003090506000898989896040516020016107ae94939291906110f2565b60408051601f198184030181529082905260015463ab9c4b5d60e01b83529092506000916001600160a01b039091169063ab9c4b5d906107fe908a908a908a908a908a908a908a906004016111ac565b600060405180830381600087803b15801561081857600080fd5b505af115801561082c573d6000803e3d6000fd5b5050505050505050505050505050505050565b6000808061084f4261012c611240565b6040516370a0823160e01b81523060048201528794509091506001600160a01b038416906370a0823190602401602060405180830381865afa158015610899573d6000803e3d6000fd5b505050506040513d601f19601f820116820180604052508101906108bd9190611095565b6004805460405163095ea7b360e01b81526001600160a01b0391821692810192909252602482018390529193509084169063095ea7b3906044016020604051808303816000875af1158015610916573d6000803e3d6000fd5b505050506040513d601f19601f8201168201806040525081019061093a9190610ff6565b50600480546040516338ed173960e01b81526001600160a01b03909116916338ed1739916109729186918a918a913091899101611258565b6000604051808303816000875af19250505080156109b257506040513d6000823e601f3d908101601f191682016040526109af9190810190611294565b60015b610a21576109be611330565b806308c379a01415610a1b57506109d361134c565b806109de5750610a23565b7f4f17d5cf0427b4fe5e5649c407d3021315cfaa7216c9e58c369ef3937c40801a81604051610a0d91906113d6565b60405180910390a150610a23565b50610a23565b505b505050505050565b6002546001600160a01b03163314610a855760405162461bcd60e51b815260206004820181905260248201527f4f776e61626c653a2063616c6c6572206973206e6f7420746865206f776e6572604482015260640161024b565b610a8e81610b41565b50565b6000610ad3610aa08484610adb565b604080518082019091526014815273373790383937b334ba39903a37903932ba3ab93760611b6020820152869190610c02565b949350505050565b600080610ae88385611240565b905083811015610b3a5760405162461bcd60e51b815260206004820152601b60248201527f536166654d6174683a206164646974696f6e206f766572666c6f770000000000604482015260640161024b565b9392505050565b6001600160a01b038116610ba65760405162461bcd60e51b815260206004820152602660248201527f4f776e61626c653a206e6577206f776e657220697320746865207a65726f206160448201526564647265737360d01b606482015260840161024b565b6002546040516001600160a01b038084169216907f8be0079c531659141344cd1fd0a4f28419497f9722a3daafe3b4186f6b6457e090600090a3600280546001600160a01b0319166001600160a01b0392909216919091179055565b60008184841115610c265760405162461bcd60e51b815260040161024b91906113d6565b506000610c3384866113e9565b95945050505050565b6001600160a01b0381168114610a8e57600080fd5b8015158114610a8e57600080fd5b600080600080600060a08688031215610c7757600080fd5b8535610c8281610c3c565b94506020860135610c9281610c3c565b93506040860135610ca281610c3c565b9250606086013591506080860135610cb981610c51565b809150509295509295909350565b60008083601f840112610cd957600080fd5b50813567ffffffffffffffff811115610cf157600080fd5b6020830191508360208260051b8501011115610d0c57600080fd5b9250929050565b600080600080600080600080600060a08a8c031215610d3157600080fd5b893567ffffffffffffffff80821115610d4957600080fd5b610d558d838e01610cc7565b909b50995060208c0135915080821115610d6e57600080fd5b610d7a8d838e01610cc7565b909950975060408c0135915080821115610d9357600080fd5b610d9f8d838e01610cc7565b909750955060608c01359150610db482610c3c565b90935060808b01359080821115610dca57600080fd5b818c0191508c601f830112610dde57600080fd5b813581811115610ded57600080fd5b8d6020828501011115610dff57600080fd5b6020830194508093505050509295985092959850929598565b634e487b7160e01b600052604160045260246000fd5b601f8201601f1916810167ffffffffffffffff81118282101715610e5457610e54610e18565b6040525050565b600067ffffffffffffffff821115610e7557610e75610e18565b5060051b60200190565b600082601f830112610e9057600080fd5b81356020610e9d82610e5b565b604051610eaa8282610e2e565b83815260059390931b8501820192828101915086841115610eca57600080fd5b8286015b84811015610eee578035610ee181610c3c565b8352918301918301610ece565b509695505050505050565b60008060008060008060c08789031215610f1257600080fd5b8635610f1d81610c3c565b9550602087013594506040870135610f3481610c3c565b93506060870135610f4481610c3c565b92506080870135915060a087013567ffffffffffffffff811115610f6757600080fd5b610f7389828a01610e7f565b9150509295509295509295565b600080600060608486031215610f9557600080fd5b8335610fa081610c3c565b925060208401359150604084013567ffffffffffffffff811115610fc357600080fd5b610fcf86828701610e7f565b9150509250925092565b600060208284031215610feb57600080fd5b8135610b3a81610c3c565b60006020828403121561100857600080fd5b8151610b3a81610c51565b6000806000806080858703121561102957600080fd5b843561103481610c3c565b9350602085013561104481610c3c565b925060408501359150606085013567ffffffffffffffff81111561106757600080fd5b61107387828801610e7f565b91505092959194509250565b634e487b7160e01b600052603260045260246000fd5b6000602082840312156110a757600080fd5b5051919050565b600081518084526020808501945080840160005b838110156110e75781516001600160a01b0316875295820195908201906001016110c2565b509495945050505050565b6001600160a01b0385811682528416602082015260408101839052608060608201819052600090611125908301846110ae565b9695505050505050565b600081518084526020808501945080840160005b838110156110e757815187529582019590820190600101611143565b6000815180845260005b8181101561118557602081850181015186830182015201611169565b81811115611197576000602083870101525b50601f01601f19169290920160200192915050565b600060018060a01b03808a16835260e060208401526111ce60e084018a6110ae565b83810360408501526111e0818a61112f565b905083810360608501526111f4818961112f565b9050818716608085015283810360a0850152611210818761115f565b9250505061ffff831660c083015298975050505050505050565b634e487b7160e01b600052601160045260246000fd5b600082198211156112535761125361122a565b500190565b85815284602082015260a06040820152600061127760a08301866110ae565b6001600160a01b0394909416606083015250608001529392505050565b600060208083850312156112a757600080fd5b825167ffffffffffffffff8111156112be57600080fd5b8301601f810185136112cf57600080fd5b80516112da81610e5b565b6040516112e78282610e2e565b82815260059290921b830184019184810191508783111561130757600080fd5b928401925b828410156113255783518252928401929084019061130c565b979650505050505050565b600060033d11156113495760046000803e5060005160e01c5b90565b600060443d101561135a5790565b6040516003193d81016004833e81513d67ffffffffffffffff816024840111818411171561138a57505050505090565b82850191508151818111156113a25750505050505090565b843d87010160208285010111156113bc5750505050505090565b6113cb60208286010187610e2e565b509095945050505050565b602081526000610b3a602083018461115f565b6000828210156113fb576113fb61122a565b50039056fea26469706673582212205474e9bbba09c67ca6b317c17bf145aee3d8db81c04f615261bc01e23f418d7864736f6c634300080a0033",
  "linkReferences": {},
  "deployedLinkReferences": {}
}